:020000040800F2
:1000000000500020C10D00084D0100084F010008FC
:1000100051010008530100085501000800000000CC
:100020000000000000000000000000005701000870
:1000300059010008000000005B010008910700085A
:10004000050E0008050E0008050E0008050E000844
:10005000050E0008050E0008050E0008050E000834
:10006000050E0008050E0008050E0008050E000824
:10007000050E0008050E0008050E0008050E000814
:10008000050E0008050E0008050E0008050E000804
:10009000050E0008050E0008050E0008050E0008F4
:1000A000050E0008050E0008050E0008050E0008E4
:1000B000050E0008050E0008050E0008050E0008D4
:1000C000050E0008050E0008050E0008050E0008C4
:1000D000050E0008050E0008050E0008310700088F
:1000E000050E0008050E0008050E000800000000BF
:1000F0000000000000000000000000000000000000
:0C01000000000000000000005FF808F1A3
:10010C0010B5054C237833B9044B13B10448AFF345
:10011C0000800123237010BD14000020000000009B
:10012C00500E000808B5034B1BB103490348AFF34D
:10013C00008008BD0000000018000020500E0008D0
:10014C007047FEE7FEE7FEE7FEE770477047704733
:10015C0043680A7923F4702323F4807343EA02235F
:10016C000A6810B5134343608468D1E90223134332
:10017C00084A224013434A7943EA420383600A7CCB
:10018C00C36A013A23F47003D2B243EA0253C36246
:10019C0010BD00BFFDF7F1FF836819B143F00103F7
:1001AC008360704723F00103FAE7836819B143F4C5
:1001BC0080738360704723F48073FAE7836843F09D
:1001CC000803836070478068C0F3C0007047836881
:1001DC0043F00403836070478068C0F3800070476D
:1001EC00836819B143F4A0038360704723F4A00320
:1001FC00FAE7092970B51BD90726A1F10A04C568CD
:10020C0004EB4404A64025EA060503FA04F42C4347
:10021C00C460062A18D81F24013A436B02EB8202F1
:10022C00944023EA040301FA02F21A43426370BDBC
:10023C000724056901EB4106B44025EA040503FADD
:10024C0006F42C430461E4E70C2A0CD81F24073A6B
:10025C00036B02EB8202944023EA040301FA02F2DC
:10026C001A430263E3E71F240D3AC36A02EB8202CE
:10027C00944023EA040391401943C162D7E700007C
:10028C00044B9A6818B142F400029A60704722F449
:10029C000002FAE700240140036823F001031B0469
:1002AC001B0C03600023036043608360C360294B15
:1002BC00984204D1284A536843F00F0326E0274B99
:1002CC00984204D1244A536843F0F0031EE0244BB7
:1002DC00984204D1204A536843F4706316E0214BD2
:1002EC00984204D11C4A536843F470430EE01E4BF1
:1002FC00984204D1184A536843F4702306E01B4B10
:10030C00984205D1144A536843F470035360704704
:10031C00174B984204D1104A536843F07063F5E7C9
:10032C00144B984201D1144AC5E7144B984201D1A1
:10033C00114AC8E7124B984201D10F4ACBE7114B37
:10034C00984201D10C4ACEE70F4B9842DFD10A4AB2
:10035C00D1E700BF08000240000002401C00024030
:10036C003000024044000240580002406C00024041
:10037C008000024008040240000402401C040240B9
:10038C003004024044040240580402408B6810B50B
:10039C000C6A026823430C6922F4FF4223434C6924
:1003AC0022F0700223438C692343CC6923434C6AAB
:1003BC0023438C6A234313430360CB6843600B686D
:1003CC0083604B68C36010BD036819B143F001032F
:1003DC000360704723F001031B041B0CF8E70000BB
:1003EC00C3004CBF034B044B1B68034214BF0120DA
:1003FC00002070470004024000000240C3004CBFC4
:10040C00014B024B58607047000402400000024050
:10041C00CA782DE9F041D30648BF8B780E8802F0DC
:10042C000F0548BF1D4316F0FF0F1AD000214FF0E7
:10043C00010C4FF00F0E03680CFA01F737EA0604B3
:10044C000BD18C000EFA04F823EA080305FA04F425
:10045C00282A43EA040326D1476101310829EBD14C
:10046C000360FF2E1DD908244FF0010C4FF00F0E26
:10047C0041680CFA04F737EA06030ED104F1804305
:10048C00083B9B000EFA03F821EA080105FA03F376
:10049C00282A41EA03010AD147610134102CE8D122
:1004AC004160BDE8F081482A08BF0761D5E7482ABA
:1004BC0008BF0761F1E700000028164A30B500F4C8
:1004CC004015B4BFD3695368B5F5401F84B210D141
:1004DC00556823F0706325F07065556019B1420DB5
:1004EC001201944023430B4A0028B4BFD3615360DC
:1004FC0030BDC2024DBF0322420D1201C0F30345B1
:10050C004CBFAA4004FA02F223EA020343F07063E0
:10051C00E4E700BF000001401B4A10B5536803F02C
:10052C000C03082B1FD0194B03605368184CC3F3F2
:10053C000313E15C0368CB4043605168C1F30221B3
:10054C00615C23FA01F181605168C1F3C221615CE5
:10055C00CB40C36052680F49C2F381328A5CB3FB53
:10056C00F2F3036110BD53685168C3F38343CC03AA
:10057C0003F1020302D408494B43D5E751688903C0
:10058C00F9D40249F8E700BF0010024000127A00CB
:10059C00040000200000002000093D00044B5A69B3
:1005AC0011B110435861704722EA0000FAE700BF0E
:1005BC0000100240044B9A6911B1104398617047C6
:1005CC0022EA0000FAE700BF00100240044BDA698F
:1005DC0011B11043D861704722EA0000FAE700BF5E
:1005EC000010024030B50D460446038A8A899BB23E
:1005FC00C98823F440530B4303828389A98823F4CD
:10060C00B05323F00C030B43298987B00B43698942
:10061C000B438381838A9BB223F4407313438382FD
:10062C0001A8FFF779FFDDE90331154A944218BFA1
:10063C0019461923A2894B43296810044CBF490061
:10064C008900B3FBF1F16425B1FBF5F3A289180124
:10065C00120405FB13130BD5DA003232B2FBF5F2A0
:10066C0002F0070242EA00039BB2238107B030BDBF
:10067C001B013233B3FBF5F303F00F030343F3E732
:10068C0000380140838919B143F4005383817047CA
:10069C0023F400531B041B0CF8E701F01F0310B5E7
:1006AC00C1F342140121012C01FA03F105D10C30E4
:1006BC0003683AB11943016010BD022C0CBF103015
:1006CC001430F5E723EA0101F5E7C1F30801818055
:1006DC0070478088C0F3080070470388194214BF24
:1006EC000120002070470123C1F3421210B5012AEA
:1006FC0001F01F0403FA04F30DD182891340028820
:10070C0092B26BB10123090A03FA01F10A4214BF38
:10071C001846002010BD022A0CBF028A828AEDE71F
:10072C001846F7E7134A08B5136840F2255123F031
:10073C00010313601048FFF7D6FF68B10E48FFF7AE
:10074C00C8FF0E4A92F86430D0540133DBB2622BEE
:10075C0088BF002382F86430064B094A40F22771A7
:10076C009A601A68044842F001021A60BDE8084019
:10077C00FFF7B9BF10E000E0004800403A0000204D
:10078C00DF290500044A136823F0010313600122DA
:10079C00024B83F86620704710E000E03A0000201E
:1007AC004FF400422DE9F843124B81461A6100BF09
:1007BC0000BF00259846104F4C1E40213846FFF7CD
:1007CC008CFF0028F9D0EEB219F806103846FFF766
:1007DC007CFFA64205F10105EFDB074C40212046CA
:1007EC00FFF77BFF0028F9D04FF40043C8F8143012
:1007FC00BDE8F8830008014000480040034B044A60
:10080C005A609A6006221A60704700BF10E000E040
:10081C00DF29050007B501213D20FFF7CBFE0121A3
:10082C000E48FFF749FE4FF40043ADF80430102397
:10083C008DF80730012301A909488DF80630FFF720
:10084C00E7FD0F23ADF80430002301A905488DF80E
:10085C000730FFF7DDFD03B05DF804FB000230004C
:10086C00000C014000080140012170B5084690B011
:10087C00FFF794FE01214FF40070FFF79BFE364802
:10088C00FFF70AFD354B80220593354B4FF4806101
:10089C0006934FF48073CDE90A2320230025042608
:1008AC00CDE90C134FF4005305A92B48CDE90E35B7
:1008BC00CDE907560995FFF769FD01212648FFF799
:1008CC0083FD01244FF46023694626488DF80440CB
:1008DC008DF80540CDE9023500958DF81060FFF7D5
:1008EC0037FC2246072329461E48FFF782FC214687
:1008FC00072302221B48FFF77CFC0723032202215B
:10090C001848FFF776FC0723324603211548FFF7FA
:10091C0070FC21461348FFF748FC21461148FFF7AD
:10092C003BFC2046FFF7ACFC0E48FFF747FC0D4C98
:10093C002046FFF748FC0028FAD10A48FFF747FC8D
:10094C00084C2046FFF748FC0028FAD10121054845
:10095C00FFF746FC10B070BD080002404C2401406B
:10096C00A20000200024014030B5012187B04FF4D3
:10097C008020FFF72BFE01212448FFF79DFD4FF44B
:10098C000063ADF804300423214D0DEB0301284620
:10099C008DF80730FFF73CFD4FF480630324ADF86E
:1009AC000430182301A928468DF806408DF807302D
:1009BC00FFF72EFD4FF40043ADF80430102301A9CE
:1009CC0014488DF806408DF80730FFF721FD002301
:1009DC004FF41652CDE902234FF440220E4C02A9DB
:1009EC0020460492ADF81430FFF7FCFD80220B4B2F
:1009FC0020465A6040F225510122FFF74EFE01219C
:100A0C002046FFF73FFE07B030BD00BF10001400BA
:100A1C0000100140000801400048004000E100E0E7
:100A2C002DE9F74F62B6FFF7F5FEFFF71DFFFFF755
:100A3C009BFF4FF4004200242B4B2C4D5A61FFF7C7
:100A4C00DDFE2B4B0B22274626469846AA46DFF89E
:100A5C00A890DFF8A8B01A7085F8644085F8654056
:100A6C0085F866400220FFF7BBFC60B1F92E28D850
:100A7C00BBF8003001361F44BBF80230F6B21C4400
:100A8C000220FFF7BBFC95F86630002BEAD04946F4
:100A9C0098F80020504600F04AF895F865100029A7
:100AAC00E0D04FF40042134B50461A61CDE90032AE
:100ABC00FFF776FEDDE90032002185F865105A61FA
:100ACC00D0E7FA20B7FBF0F7B4FBF0F080B2A9F84E
:100ADC00027000F031F90A23002490FBF3F0274652
:100AEC00A9F804002646CBE7000801403A00002094
:100AFC00A1000020000C014030000020A2000020CA
:100B0C0030B54FF6FF734AF201040144884201D11B
:100B1C00184630BD10F8012B5340082203F0010594
:100B2C005B080DB163409BB2013AF7D1EEE72DE9BA
:100B3C00F04F90F8669085B0044688460092B9F163
:100B4C00000F00F0B98000260122354637464FF0E1
:100B5C00060A0DF10C0B931E082B16D8DFE813F0C8
:100B6C001C0024002E0058008700A600B9000900C4
:100B7C00CF001DB1BDF80C3028F816302378002BAF
:100B8C0000F0968084F865A0A1E094F86430072BFF
:100B9C0000F2C38000238BE02378009A934201D0AB
:100BAC00002BF7D10322D6E76378032B00F0B78034
:100BBC00102B16BF062204220127CCE7A378E67877
:100BCC00657906EB03262379B6B205EB0325ADB2A6
:100BDC0061787319013B10299BB20BD194F8641006
:100BEC006A0009329142D5D1002B0EBF0522062294
:100BFC000227B0E7032940F09A8094F86420083A61
:100C0C00012AC7D8022B4FF0060228BF0227A2E701
:100C1C006378102B40F0858020464B4600214FEA2C
:100C2C00460C8AB2AA4205D3002B4FF0060208BF2D
:100C3C00032790E790F807E0027A02EB0E2292B2BB
:100C4C002BF8112063B10CEB41034344B3F806E0DD
:100C5C00964508D81B899A4207D9B3FA83F35B09E6
:100C6C0001310230DDE70023FAE70123F8E794F8BD
:100C7C0064302046991EC9B20193FFF741FF019BD6
:100C8C00C2B2234413F8021C914283D113F8013CE5
:100C9C00C0F3072083427FF47DAF002F43D16378EC
:100CAC00032B42D0102B07D1092254E7237833B9F8
:100CBC0084F8663084F8643005B0BDE8F08F637852
:100CCC00A77063F07F036370032384F865300A22F6
:100CDC0041E72378002BEBD06B00DBB2A37065B13E
:100CEC0008EB46025188012D4FEA11202171E0706A
:100CFC0081BF9288110A6171A2710333E5E794F800
:100D0C00655020462946FFF7FBFE63196055000A23
:100D1C000235587084F865503CE702221BE7042228
:100D2C0019E7062217E7072215E7082213E70B2A13
:100D3C007FF411AFC0E70000B0F5C77F30B531D9F3
:100D4C00B0F5676F31D269230022194C991A012929
:100D5C0009DC34F8121088420FD302EB82004000F9
:100D6C00323800B214E099184910CDB234F8111091
:100D7C0081422CBF2A462B46E8E734F8134003EB9C
:100D8C0083030A1B5B00323B92B29BB20AB918B2C6
:100D9C0030BD001B0A24510804FB001090FBF2F03C
:100DAC00181ADEE74FF47A70F2E76FF03100EFE7D4
:100DBC00680E0008002103E00A4B5B5843500431D5
:100DCC0009480A4B42189A42F6D3094A02E000231A
:100DDC0042F8043B074B9A42F9D300F00FF8FFF7A7
:100DEC001FFE7047440F0008000000201400002074
:100DFC0014000020AC000020FEE7000070B50025B8
:100E0C000C4E0D4CA41BA410A54209D100F01AF8ED
:100E1C0000250A4E0A4CA41BA410A54205D170BD96
:100E2C0056F8253098470135EEE756F825309847A7
:100E3C000135F2E73C0F00083C0F00083C0F00089E
:100E4C00400F0008F8B500BFF8BC08BC9E467047C0
:0C0E5C00F8B500BFF8BC08BC9E4670470B
:100E6800700E5B0E450E2E0E170EFE0DE50DCB0D0A
:100E7800B00D940D780D5A0D3C0D1C0DFC0CDB0CBF
:100E8800BA0C970C740C500C2B0C060CE00BB90B1D
:100E9800910B690B410B170BED0AC30A990A6D0AEE
:100EA800420A160AEA09BE099109640937090909BB
:100EB800DC08AF08810854082708FB07CF07A307F9
:100EC80078074D072207F806CE06A5067C065406C5
:100ED8002C060406DE05B80592056D0549052605AC
:100EE8000305E104BF049F047E045F044104220457
:100EF8000504E903CD03B10397037D0364034B03A2
:100F080033031C030503EF02DA02C502B1029D0296
:100F18008A0278026602550244023302230214024E
:100F28000402F601E701D901CC01BF01B201A60113
:040F38009A018E018B
:040F3C003101000877
:040F40000D01000897
:100F44000204060800000000010203040102030475
:040F5400060708097B
:0400000508000DC121
:00000001FF
